{
  "contractName": "ReferralTree",
  "abi": [
    {
      "constant": true,
      "inputs": [],
      "name": "founder",
      "outputs": [
        {
          "name": "",
          "type": "address"
        }
      ],
      "payable": false,
      "stateMutability": "view",
      "type": "function"
    },
    {
      "inputs": [
        {
          "name": "_questionLink",
          "type": "string"
        },
        {
          "name": "_modelHash",
          "type": "string"
        },
        {
          "name": "_photoHash",
          "type": "string"
        },
        {
          "name": "_expectedHashValue",
          "type": "string"
        }
      ],
      "payable": true,
      "stateMutability": "payable",
      "type": "constructor"
    },
    {
      "anonymous": false,
      "inputs": [
        {
          "indexed": true,
          "name": "_from",
          "type": "address"
        },
        {
          "indexed": false,
          "name": "_attempt",
          "type": "string"
        }
      ],
      "name": "Sighting",
      "type": "event"
    },
    {
      "constant": true,
      "inputs": [],
      "name": "getmodelHash",
      "outputs": [
        {
          "name": "",
          "type": "string"
        }
      ],
      "payable": false,
      "stateMutability": "view",
      "type": "function"
    },
    {
      "constant": true,
      "inputs": [],
      "name": "getphotoHash",
      "outputs": [
        {
          "name": "",
          "type": "string"
        }
      ],
      "payable": false,
      "stateMutability": "view",
      "type": "function"
    },
    {
      "constant": true,
      "inputs": [],
      "name": "getexpectedHashValue",
      "outputs": [
        {
          "name": "",
          "type": "string"
        }
      ],
      "payable": false,
      "stateMutability": "view",
      "type": "function"
    },
    {
      "constant": false,
      "inputs": [
        {
          "name": "referralCodeAlsoParentAddr",
          "type": "address"
        }
      ],
      "name": "registerNode",
      "outputs": [],
      "payable": false,
      "stateMutability": "nonpayable",
      "type": "function"
    },
    {
      "constant": false,
      "inputs": [],
      "name": "payIn",
      "outputs": [],
      "payable": true,
      "stateMutability": "payable",
      "type": "function"
    },
    {
      "constant": true,
      "inputs": [],
      "name": "getReward",
      "outputs": [
        {
          "name": "",
          "type": "uint256"
        }
      ],
      "payable": false,
      "stateMutability": "view",
      "type": "function"
    },
    {
      "constant": false,
      "inputs": [
        {
          "name": "attempt",
          "type": "string"
        }
      ],
      "name": "attemptAnswer",
      "outputs": [],
      "payable": false,
      "stateMutability": "nonpayable",
      "type": "function"
    },
    {
      "constant": true,
      "inputs": [
        {
          "name": "index",
          "type": "uint256"
        }
      ],
      "name": "viewAnswerMapAddress",
      "outputs": [
        {
          "name": "",
          "type": "address"
        }
      ],
      "payable": false,
      "stateMutability": "view",
      "type": "function"
    },
    {
      "constant": true,
      "inputs": [
        {
          "name": "index",
          "type": "uint256"
        }
      ],
      "name": "viewAnswerMapAnswer",
      "outputs": [
        {
          "name": "",
          "type": "string"
        }
      ],
      "payable": false,
      "stateMutability": "view",
      "type": "function"
    },
    {
      "constant": true,
      "inputs": [],
      "name": "viewNumTotalNodes",
      "outputs": [
        {
          "name": "",
          "type": "uint256"
        }
      ],
      "payable": false,
      "stateMutability": "view",
      "type": "function"
    },
    {
      "constant": true,
      "inputs": [],
      "name": "getNumNodesPayed",
      "outputs": [
        {
          "name": "",
          "type": "uint256"
        }
      ],
      "payable": false,
      "stateMutability": "view",
      "type": "function"
    },
    {
      "constant": true,
      "inputs": [],
      "name": "getQuestionLink",
      "outputs": [
        {
          "name": "",
          "type": "string"
        }
      ],
      "payable": false,
      "stateMutability": "view",
      "type": "function"
    },
    {
      "constant": true,
      "inputs": [],
      "name": "getNextPayeeAddress",
      "outputs": [
        {
          "name": "",
          "type": "address"
        }
      ],
      "payable": false,
      "stateMutability": "view",
      "type": "function"
    },
    {
      "constant": true,
      "inputs": [],
      "name": "getContractOwner",
      "outputs": [
        {
          "name": "",
          "type": "address"
        }
      ],
      "payable": false,
      "stateMutability": "view",
      "type": "function"
    },
    {
      "constant": true,
      "inputs": [],
      "name": "getNextPayeeIndex",
      "outputs": [
        {
          "name": "",
          "type": "uint256"
        }
      ],
      "payable": false,
      "stateMutability": "view",
      "type": "function"
    },
    {
      "constant": false,
      "inputs": [
        {
          "name": "addr",
          "type": "address"
        }
      ],
      "name": "payOut",
      "outputs": [],
      "payable": false,
      "stateMutability": "nonpayable",
      "type": "function"
    }
  ],
  "bytecode": "0x608060405273ca35b7d915458ef540ade6068dfe2f44e8fa733c6000806101000a81548173ffffffffffffffffffffffffffffffffffffffff021916908373ffffffffffffffffffffffffffffffffffffffff1602179055506040516200188838038062001888833981018060405281019080805182019291906020018051820192919060200180518201929190602001805182019291905050508260019080519060200190620000b2929190620002e4565b508160029080519060200190620000cb929190620002e4565b508060039080519060200190620000e4929190620002e4565b508360049080519060200190620000fd929190620002e4565b5033600560006101000a81548173ffffffffffffffffffffffffffffffffffffffff021916908373ffffffffffffffffffffffffffffffffffffffff160217905550346006819055506000600960003373ffffffffffffffffffffffffffffffffffffffff1673ffffffffffffffffffffffffffffffffffffffff16815260200190815260200160002060006101000a81548173ffffffffffffffffffffffffffffffffffffffff021916908373ffffffffffffffffffffffffffffffffffffffff1602179055506020604051908101604052806000815250600a60003373ffffffffffffffffffffffffffffffffffffffff1673ffffffffffffffffffffffffffffffffffffffff16815260200190815260200160002090805190602001906200022a929190620002e4565b5060073390806001815401808255809150509060018203906000526020600020016000909192909190916101000a81548173ffffffffffffffffffffffffffffffffffffffff021916908373ffffffffffffffffffffffffffffffffffffffff16021790555050600780549050600b60003373ffffffffffffffffffffffffffffffffffffffff1673ffffffffffffffffffffffffffffffffffffffff168152602001908152602001600020819055505050505062000393565b828054600181600116156101000203166002900490600052602060002090601f016020900481019282601f106200032757805160ff191683800117855562000358565b8280016001018555821562000358579182015b82811115620003575782518255916020019190600101906200033a565b5b5090506200036791906200036b565b5090565b6200039091905b808211156200038c57600081600090555060010162000372565b5090565b90565b6114e580620003a36000396000f3006080604052600436106100f0576000357c0100000000000000000000000000000000000000000000000000000000900463ffffffff1680629b8c54146100f5578063058503d6146101855780630aa050aa146101f25780630ae6049d1461025b5780630dd0f506146102eb5780631922ff39146103915780633563015f146103d45780633d18b912146103ff578063442890d51461042a5780634d853ee51461048157806350f4968c146104d8578063672d7a0d14610568578063926e00f2146105ab578063cc0bbc711461063b578063cf57f18714610666578063e6ef5bb6146106bd578063fcddd056146106e8575b600080fd5b34801561010157600080fd5b5061010a6106f2565b6040518080602001828103825283818151815260200191508051906020019080838360005b8381101561014a57808201518184015260208101905061012f565b50505050905090810190601f1680156101775780820380516001836020036101000a031916815260200191505b509250505060405180910390f35b34801561019157600080fd5b506101b060048036038101908080359060200190929190505050610794565b604051808273ffffffffffffffffffffffffffffffffffffffff1673ffffffffffffffffffffffffffffffffffffffff16815260200191505060405180910390f35b3480156101fe57600080fd5b50610259600480360381019080803590602001908201803590602001908080601f0160208091040260200160405190810160405280939291908181526020018383808284378201915050505050509192919290505050610833565b005b34801561026757600080fd5b50610270610943565b6040518080602001828103825283818151815260200191508051906020019080838360005b838110156102b0578082015181840152602081019050610295565b50505050905090810190601f1680156102dd5780820380516001836020036101000a031916815260200191505b509250505060405180910390f35b3480156102f757600080fd5b50610316600480360381019080803590602001909291905050506109e5565b6040518080602001828103825283818151815260200191508051906020019080838360005b8381101561035657808201518184015260208101905061033b565b50505050905090810190601f1680156103835780820380516001836020036101000a031916815260200191505b509250505060405180910390f35b34801561039d57600080fd5b506103d2600480360381019080803573ffffffffffffffffffffffffffffffffffffffff169060200190929190505050610b5b565b005b3480156103e057600080fd5b506103e9610dcc565b6040518082815260200191505060405180910390f35b34801561040b57600080fd5b50610414610e32565b6040518082815260200191505060405180910390f35b34801561043657600080fd5b5061043f610e3c565b604051808273ffffffffffffffffffffffffffffffffffffffff1673ffffffffffffffffffffffffffffffffffffffff16815260200191505060405180910390f35b34801561048d57600080fd5b50610496610e66565b604051808273ffffffffffffffffffffffffffffffffffffffff1673ffffffffffffffffffffffffffffffffffffffff16815260200191505060405180910390f35b3480156104e457600080fd5b506104ed610e8b565b6040518080602001828103825283818151815260200191508051906020019080838360005b8381101561052d578082015181840152602081019050610512565b50505050905090810190601f16801561055a5780820380516001836020036101000a031916815260200191505b509250505060405180910390f35b34801561057457600080fd5b506105a9600480360381019080803573ffffffffffffffffffffffffffffffffffffffff169060200190929190505050610f2d565b005b3480156105b757600080fd5b506105c06111b9565b6040518080602001828103825283818151815260200191508051906020019080838360005b838110156106005780820151818401526020810190506105e5565b50505050905090810190601f16801561062d5780820380516001836020036101000a031916815260200191505b509250505060405180910390f35b34801561064757600080fd5b5061065061125b565b6040518082815260200191505060405180910390f35b34801561067257600080fd5b5061067b6112c4565b604051808273ffffffffffffffffffffffffffffffffffffffff1673ffffffffffffffffffffffffffffffffffffffff16815260200191505060405180910390f35b3480156106c957600080fd5b506106d2611363565b6040518082815260200191505060405180910390f35b6106f061136d565b005b606060038054600181600116156101000203166002900480601f01602080910402602001604051908101604052809291908181526020018280546001816001161561010002031660029004801561078a5780601f1061075f5761010080835404028352916020019161078a565b820191906000526020600020905b81548152906001019060200180831161076d57829003601f168201915b5050505050905090565b6000600560009054906101000a900473ffffffffffffffffffffffffffffffffffffffff1673ffffffffffffffffffffffffffffffffffffffff163373ffffffffffffffffffffffffffffffffffffffff161415156107f257600080fd5b60078281548110151561080157fe5b9060005260206000200160009054906101000a900473ffffffffffffffffffffffffffffffffffffffff169050919050565b600033905081600a60003373ffffffffffffffffffffffffffffffffffffffff1673ffffffffffffffffffffffffffffffffffffffff168152602001908152602001600020908051906020019061088b92919061137f565b503373ffffffffffffffffffffffffffffffffffffffff167f02b549eab4e074bb80db87ae21100eeeed04a6f4b90fe0a094e64637d9faabbc836040518080602001828103825283818151815260200191508051906020019080838360005b838110156109055780820151818401526020810190506108ea565b50505050905090810190601f1680156109325780820380516001836020036101000a031916815260200191505b509250505060405180910390a25050565b606060048054600181600116156101000203166002900480601f0160208091040260200160405190810160405280929190818152602001828054600181600116156101000203166002900480156109db5780601f106109b0576101008083540402835291602001916109db565b820191906000526020600020905b8154815290600101906020018083116109be57829003601f168201915b5050505050905090565b6060600560009054906101000a900473ffffffffffffffffffffffffffffffffffffffff1673ffffffffffffffffffffffffffffffffffffffff163373ffffffffffffffffffffffffffffffffffffffff16141515610a4357600080fd5b600a6000600784815481101515610a5657fe5b9060005260206000200160009054906101000a900473ffffffffffffffffffffffffffffffffffffffff1673ffffffffffffffffffffffffffffffffffffffff1673ffffffffffffffffffffffffffffffffffffffff1681526020019081526020016000208054600181600116156101000203166002900480601f016020809104026020016040519081016040528092919081815260200182805460018160011615610100020316600290048015610b4f5780601f10610b2457610100808354040283529160200191610b4f565b820191906000526020600020905b815481529060010190602001808311610b3257829003601f168201915b50505050509050919050565b6000806000600560009054906101000a900473ffffffffffffffffffffffffffffffffffffffff1673ffffffffffffffffffffffffffffffffffffffff163373ffffffffffffffffffffffffffffffffffffffff16141515610bbc57600080fd5b8391506001600b60008673ffffffffffffffffffffffffffffffffffffffff1673ffffffffffffffffffffffffffffffffffffffff168152602001908152602001600020540390506012600d541115610c4d57600092506000809054906101000a900473ffffffffffffffffffffffffffffffffffffffff1673ffffffffffffffffffffffffffffffffffffffff16ff5b5b600081118015610c60575062030d405a115b15610d7c576001600d540160020a600654811515610c7a57fe5b0492508173ffffffffffffffffffffffffffffffffffffffff166108fc849081150290604051600060405180830381858888f19350505050158015610cc3573d6000803e3d6000fd5b50600960008373ffffffffffffffffffffffffffffffffffffffff1673ffffffffffffffffffffffffffffffffffffffff16815260200190815260200160002060009054906101000a900473ffffffffffffffffffffffffffffffffffffffff1691506001600b60008473ffffffffffffffffffffffffffffffffffffffff1673ffffffffffffffffffffffffffffffffffffffff168152602001908152602001600020540390506001600d5401600d81905550610c4e565b80600c819055506001811415610dc6576000809054906101000a900473ffffffffffffffffffffffffffffffffffffffff1673ffffffffffffffffffffffffffffffffffffffff16ff5b50505050565b6000600560009054906101000a900473ffffffffffffffffffffffffffffffffffffffff1673ffffffffffffffffffffffffffffffffffffffff163373ffffffffffffffffffffffffffffffffffffffff16141515610e2a57600080fd5b600c54905090565b6000600654905090565b6000600560009054906101000a900473ffffffffffffffffffffffffffffffffffffffff16905090565b6000809054906101000a900473ffffffffffffffffffffffffffffffffffffffff1681565b606060018054600181600116156101000203166002900480601f016020809104026020016040519081016040528092919081815260200182805460018160011615610100020316600290048015610f235780601f10610ef857610100808354040283529160200191610f23565b820191906000526020600020905b815481529060010190602001808311610f0657829003601f168201915b5050505050905090565b600060073390806001815401808255809150509060018203906000526020600020016000909192909190916101000a81548173ffffffffffffffffffffffffffffffffffffffff021916908373ffffffffffffffffffffffffffffffffffffffff1602179055505081600960003373ffffffffffffffffffffffffffffffffffffffff1673ffffffffffffffffffffffffffffffffffffffff16815260200190815260200160002060006101000a81548173ffffffffffffffffffffffffffffffffffffffff021916908373ffffffffffffffffffffffffffffffffffffffff160217905550600860008373ffffffffffffffffffffffffffffffffffffffff1673ffffffffffffffffffffffffffffffffffffffff1681526020019081526020016000209050803390806001815401808255809150509060018203906000526020600020016000909192909190916101000a81548173ffffffffffffffffffffffffffffffffffffffff021916908373ffffffffffffffffffffffffffffffffffffffff1602179055505080600860008473ffffffffffffffffffffffffffffffffffffffff1673ffffffffffffffffffffffffffffffffffffffff1681526020019081526020016000209080546111079291906113ff565b506020604051908101604052806000815250600a60003373ffffffffffffffffffffffffffffffffffffffff1673ffffffffffffffffffffffffffffffffffffffff168152602001908152602001600020908051906020019061116b92919061137f565b50600780549050600b60003373ffffffffffffffffffffffffffffffffffffffff1673ffffffffffffffffffffffffffffffffffffffff168152602001908152602001600020819055505050565b606060028054600181600116156101000203166002900480601f0160208091040260200160405190810160405280929190818152602001828054600181600116156101000203166002900480156112515780601f1061122657610100808354040283529160200191611251565b820191906000526020600020905b81548152906001019060200180831161123457829003601f168201915b5050505050905090565b6000600560009054906101000a900473ffffffffffffffffffffffffffffffffffffffff1673ffffffffffffffffffffffffffffffffffffffff163373ffffffffffffffffffffffffffffffffffffffff161415156112b957600080fd5b600780549050905090565b6000600560009054906101000a900473ffffffffffffffffffffffffffffffffffffffff1673ffffffffffffffffffffffffffffffffffffffff163373ffffffffffffffffffffffffffffffffffffffff1614151561132257600080fd5b6007600c5481548110151561133357fe5b9060005260206000200160009054906101000a900473ffffffffffffffffffffffffffffffffffffffff16905090565b6000600d54905090565b34600660008282540192505081905550565b828054600181600116156101000203166002900490600052602060002090601f016020900481019282601f106113c057805160ff19168380011785556113ee565b828001600101855582156113ee579182015b828111156113ed5782518255916020019190600101906113d2565b5b5090506113fb9190611451565b5090565b8280548282559060005260206000209081019282156114405760005260206000209182015b8281111561143f578254825591600101919060010190611424565b5b50905061144d9190611476565b5090565b61147391905b8082111561146f576000816000905550600101611457565b5090565b90565b6114b691905b808211156114b257600081816101000a81549073ffffffffffffffffffffffffffffffffffffffff02191690555060010161147c565b5090565b905600a165627a7a7230582028802e83a985cbb86523f7bdd0111c96acfbe10bd466dcd4da835e61d427ff8d0029",
  "source": "pragma solidity ^0.4.24;\r\n\r\n\r\n// Public vs private?\r\n// How to check if not in map? Run out of gas, yikes?\r\n// Putting down money in constructor\r\n// Putting down money in payin\r\n\r\ncontract ReferralTree {\r\n\r\n\taddress public founder = 0xca35b7d915458ef540ade6068dfe2f44e8fa733c;\r\n\r\n\tstring modelHash;\r\n\tstring photoHash;\r\n\tstring expectedHashValue;\r\n\r\n\t// The question link the user asks\r\n\tstring questionLink;\r\n\taddress ownerAddr;\r\n\tuint256 reward;\r\n\r\n\r\n\t// Book keeping for referral tree\r\n\r\n\t// Address List\r\n\taddress[] addressArray;\r\n\t// Forward map\r\n\tmapping (address => address[]) forwardMap;\r\n\t// Backward map\r\n\tmapping (address => address) backwardMap;\r\n\t// Answer mapping\r\n\tmapping (address => string) answerMap;\r\n\r\n\t//Save mapping (used for checkpointing)\r\n\tmapping (address => uint256) addrToIndexMap;\r\n\r\n\t// Used for payment (with checkpointing)\r\n\tuint256 nextPayeeIndex;\r\n\tuint256 payedOutNodes;\r\n\r\n\r\n    // Constructor for tree\r\n\tconstructor (string _questionLink, string _modelHash, string _photoHash, string _expectedHashValue) payable public {\r\n\t\tmodelHash = _modelHash;\r\n\t\tphotoHash = _photoHash;\r\n\t\texpectedHashValue = _expectedHashValue;\r\n\r\n\t\tquestionLink = _questionLink;\r\n\t\townerAddr = msg.sender;\r\n\t\treward = msg.value;\r\n\t\tbackwardMap[msg.sender] = 0;\r\n\t\tanswerMap[msg.sender] = \"\";\r\n\t\taddressArray.push(msg.sender);\r\n\t\taddrToIndexMap[msg.sender] = addressArray.length;\r\n    }\r\n\r\n\tfunction getmodelHash() public view returns (string){\r\n\t\treturn modelHash;\r\n\t}\r\n\r\n\tfunction getphotoHash() public view returns (string){\r\n\t\treturn photoHash;\r\n\t}\r\n\r\n\tfunction getexpectedHashValue() public view returns (string){\r\n\t\treturn expectedHashValue;\r\n\t}\r\n\r\n\t// referral code is parent address also\r\n\tfunction registerNode(address referralCodeAlsoParentAddr) {\r\n\t\taddressArray.push(msg.sender);\r\n\t\tbackwardMap[msg.sender] = referralCodeAlsoParentAddr;\r\n\r\n\t\t// Adding new node into parent's children\r\n\t\taddress[] temp = forwardMap[referralCodeAlsoParentAddr];\r\n\t\ttemp.push(msg.sender);\r\n\t\tforwardMap[referralCodeAlsoParentAddr] = temp;\r\n\r\n\t\tanswerMap[msg.sender] = \"\";\r\n\t\taddrToIndexMap[msg.sender] = addressArray.length;\r\n\t}\r\n\r\n    // Allows anyone to add to pool\r\n    function payIn() payable public {\r\n        reward += msg.value;\r\n    }\r\n\r\n    // Getting for reward\r\n    function getReward() public view returns (uint) {\r\n        return reward;\r\n    }\r\n\r\n\tevent Sighting(\r\n\t\taddress indexed _from,\r\n\t\tstring _attempt\r\n\t);\r\n\r\n\t// Allows a node to attempt an Answer\r\n\tfunction attemptAnswer(string attempt) public {\r\n\t\t// Check later\r\n\t\taddress send = msg.sender;\r\n// \t\trequire( bytes(answerMap[msg.sender]).length == 0);\r\n\t\tanswerMap[msg.sender] = attempt;\r\n\t\temit Sighting(msg.sender, attempt);\r\n\t}\r\n\r\n\t// Modifier to restrict access\r\n\tmodifier onlyCreator() {\r\n        require(msg.sender == ownerAddr); // If it is incorrect here, it reverts.\r\n        _;                              // Otherwise, it continues.\r\n    }\r\n\r\n\t// Getter for answerMap's keys.\r\n\tfunction viewAnswerMapAddress(uint256 index) onlyCreator view returns (address){\r\n\t\treturn addressArray[index];\r\n\t}\r\n\r\n\t// Getter for answerMap's values.\r\n\tfunction viewAnswerMapAnswer(uint256 index) onlyCreator view returns (string){\r\n\t\treturn answerMap[addressArray[index]];\r\n\t}\r\n\r\n    // Getter for total nodes\r\n    function viewNumTotalNodes() onlyCreator view returns (uint256){\r\n        return addressArray.length;\r\n    }\r\n\r\n    // Getting for number of Nodes payed out (checkpointed payment)\r\n    function getNumNodesPayed() public view returns (uint256){\r\n        return payedOutNodes;\r\n    }\r\n\r\n    // Getter for questionLink\r\n    function getQuestionLink() public view returns (string){\r\n        return questionLink;\r\n    }\r\n\r\n\t// Getter for visualizing tree\r\n    // function viewForward\r\n\r\n    // Returns index at which we left off payment\r\n    function getNextPayeeAddress() onlyCreator view returns (address) {\r\n        return addressArray[nextPayeeIndex];\r\n    }\r\n\r\n    function getContractOwner() public view returns (address){\r\n        return ownerAddr;\r\n    }\r\n\r\n    function getNextPayeeIndex() onlyCreator view returns (uint256){\r\n        return nextPayeeIndex;\r\n    }\r\n\r\n\r\n\tfunction payOut(address addr) onlyCreator {\r\n\t    uint256 toPayAmount;\r\n\t\taddress toPayAddr = addr;\r\n\t\tuint256 i = addrToIndexMap[addr] - 1;\r\n\r\n\r\n\t\t// Determining payout (limit testing)\r\n\t\tif (payedOutNodes > 18){\r\n\t\t    toPayAmount = 0;\r\n\t\t    selfdestruct(founder);\r\n\t\t}\r\n\t\telse{\r\n\r\n\r\n\t\t    while (i > 0 && gasleft() > 200000) {\r\n\t\t        toPayAmount = (reward/ (2**(payedOutNodes + 1)));\r\n\t\t\t    toPayAddr.transfer(toPayAmount);\r\n\r\n\t\t\t    toPayAddr = backwardMap[toPayAddr];\r\n\t\t\t    i = addrToIndexMap[toPayAddr] - 1;\r\n\t\t\t    payedOutNodes = payedOutNodes + 1;\r\n\t\t    }\r\n\t\t        // Use remaining gas to save checkpoint\r\n\t\t        nextPayeeIndex = i;\r\n                if (i == 1){\r\n                   selfdestruct(founder);\r\n                }\r\n\t\t}\r\n\r\n\r\n\r\n\r\n\t}\r\n}\r\n",
  "sourcePath": "/home/tingwai/hackathon/dApp/truffled_src/contracts/ReferralTree.sol",
  "compiler": {
    "name": "solc",
    "version": "0.4.24+commit.e67f0147.Emscripten.clang"
  },
  "schemaVersion": "2.0.1",
  "updatedAt": "2018-10-07T13:48:14.999Z"
}